:100000000C942B000C9453000C9453000C9453004C
:100010000C9453000C9453000C9453000C94530014
:100020000C9453000C9453000C9453000C94530004
:100030000C9453000C9453000C9453000C945300F4
:100040000C9453000C9453000C9453000C945300E4
:100050000C945300A90311241FBECFE5D4E0DEBFEA
:10006000CDBF10E0A0E6B0E0EEEBF7E002C00590F7
:100070000D92A83AB107D9F720E0A8EAB0E001C094
:100080001D92A43BB207E1F710E0CBE2D0E004C040
:100090002197FE010E94D703CA32D107C9F70E94F7
:1000A00022030C94DD030C940000DC01CB01880FCB
:1000B000991FAA1FBB1F880F991FAA1FBB1F9C0156
:1000C000AD01220F331F441F551F220F331F441F42
:1000D000551F60E074E284EF90E00E94B503215068
:1000E000310929B930BD1BB886E880BD88E18AB9DD
:1000F00008955D9BFECF8CB908955D9BFECF8CB9B2
:100100000895CF93DF93EC018881882331F0219605
:100110000E94790089918111FBCFDF91CF910895E1
:10012000CB010E9481008DE00E947D008AE00E9448
:100130007D000895442311F0DF9A01C0DF98862FD7
:1001400082958F7080FF02C0D89A01C0D89881FF35
:1001500002C0D99A01C0D99882FF02C0DA9A01C0C0
:10016000DA98887011F0DB9A01C0DB98DD9885E0A1
:100170008A95F1F70000DD9A95E09A95F1F7000075
:10018000DD988FE891E00197F1F700C0000044236B
:1001900011F0DF9A01C0DF9860FF02C0D89A01C059
:1001A000D89861FF02C0D99A01C0D99862FF02C0F5
:1001B000DA9A01C0DA9863FF02C0DB9A01C0DB98CB
:1001C000DD9895E09A95F1F70000DD9A85E08A9533
:1001D000F1F70000DD988FE891E00197F1F700C09A
:1001E00000000895CF93DF93EC0188819FEF980F73
:1001F000923038F0843029F082E0888380E189836E
:1002000008C089818B7F803121F082E0888380E182
:100210008983D59AD79AD09AD19AD29AD39A8FE7CE
:100220009BEB0197F1F700C0000040E063E3CE01D3
:100230000E949A008FE39FE10197F1F700C0000050
:1002400040E063E3CE010E949A008FE39FE10197B3
:10025000F1F700C0000040E063E3CE010E949A0085
:100260008FE39FE10197F1F700C0000040E062E3F7
:10027000CE010E949A008FE39FE10197F1F700C041
:10028000000040E068E2CE010E949A008FE39FE107
:100290000197F1F700C0000040E066E0CE010E9447
:1002A0009A008FE39FE10197F1F700C0000040E062
:1002B0006CE0CE010E949A008FE39FE10197F1F775
:1002C00000C0000040E061E0CE010E949A008FE390
:1002D0009FE10197F1F700C0000040E062E0CE012D
:1002E0000E949A008FE39FE10197F1F700C00000A0
:1002F000DF91CF910895FC0120812130A1F02230BF
:1003000021F4662321F160EC17C02430A9F4FC012C
:100310002181203151F0662351F0613051F062307B
:1003200051F064ED09C060E807C064ED05C060E805
:1003300003C060EC01C064E9640F40E00E949A00D1
:100340008FE39FE10197F1F700C00000089560E896
:10035000F3CFEF92FF920F931F93CF93DF93FB01A5
:10036000442301F160816623E9F0DC0111962C91B0
:100370002223C1F0D42F8F017C010F5F1F4FC0E0FB
:100380000AC0F80161918F01662361F0D7011196CF
:100390008C918C1739F040E1C7010E949A00CF5F21
:1003A000CD13EFCFDF91CF911F910F91FF90EF9081
:1003B0000895EF92FF920F931F93CF93DF938C01D9
:1003C0007901FC01C181D0E0C41BD1090E947B01ED
:1003D0004C2FB701C8010E94A901DF91CF911F9155
:1003E0000F91FF90EF900895959894988D988C9820
:1003F00080E008958D988C9885E38A95F1F7000048
:100400008C9A949885E38A95F1F700008D9A9598D7
:1004100085E38A95F1F7000008958D9A95988C9A56
:10042000949885E38A95F1F700008D9895E39A9565
:10043000F1F700008C988FE39CE90197F1F700C079
:100440000000089528E030E080E8982F962311F00E
:100450008C9802C08C9A949895E39A95F1F70000D5
:100460008D9895E39A95F1F700008D9A959895E30C
:100470009A95F1F7000086952150310931F78C9853
:1004800085E38A95F1F700008D9895E39A95F1F749
:10049000000080B38295817095E39A95F1F7000092
:1004A0008D9A959895E39A95F1F7000008958C98A8
:1004B00045E34A95F1F7000028E030E080E090E85D
:1004C0008D9845E34A95F1F700008C988499892B23
:1004D0008D9A959845E34A95F1F70000969521503D
:1004E000310971F7611102C08C9802C08C9A9498FE
:1004F00095E39A95F1F700008D9845E34A95F1F759
:1005000000008D9A959895E39A95F1F7000008956B
:100510000F931F93CF93DF93EC018B01442319F0CA
:10052000413059F011C060E00E945702F801808309
:10053000CE010E940D0281E008C061E00E945702D6
:10054000F801808381E001C080E0DF91CF911F91AD
:100550000F9108951F93CF93DF93EC01162F44233F
:1005600019F0413029F00DC00E94220281E00AC03A
:10057000672F0E942202612FCE010E94220281E099
:1005800001C080E0DF91CF911F910895EF92FF921B
:100590000F931F93CF93DF938C01C62F7A01D22F35
:1005A0000E94FA01CC0F6C2FC8010E9422024D2F2D
:1005B000B701C8010E94AA02C8010E94FA016C2F6B
:1005C0006160C8010E94220280E0DF91CF911F91FB
:1005D0000F91FF90EF900895CF92DF92EF92FF92EC
:1005E0000F931F93CF937C016A01022FFC0121819D
:1005F000AB0160810E94C60210E001501109101683
:1006000011067CF4C0E0B6016C0F711D41E0C7011A
:100610000E948802CF5FEC2FF0E0E017F1079CF317
:1006200001C0C0E0B6016C0F711D40E0C7010E941F
:1006300088028C2FCF911F910F91FF90EF90DF9048
:10064000CF90089582EB90E00E94F20060E875E29E
:1006500080E090E00E9455002FEF81EE94E0215061
:1006600080409040E1F700C000008FEA90E00E94D7
:10067000F4016DE770E081EB90E00E9490002DE7BF
:1006800030E040E060E082EB90E00E94D901C0E6FB
:10069000D0E027E048EA50E060E070E08FEA90E0C8
:1006A0000E94EC02E8EAF0E08081982F9F70905D54
:1006B0009F8390E0959587959595879595958795D6
:1006C000959587958770805D8E838181982F9F7027
:1006D000905D9C8390E095958795959587959595E8
:1006E0008795959587958770805D8B838281982FFC
:1006F0009F70905D998390E09595879595958795E6
:1007000095958795959587958770805D888380E915
:1007100090E00E948100BE0181EB90E00E94900079
:1007200027E930E040E060E082EB90E00E94D901F0
:100730009E0144E061E082EB90E00E94D9012FEF3E
:1007400083ED90E3215080409040E1F700C000002D
:10075000A0CFE2EBF0E082E0808380E18183EFEAEA
:10076000F0E088E6808311820895A1E21A2EAA1B88
:10077000BB1BFD010DC0AA1FBB1FEE1FFF1FA21751
:10078000B307E407F50720F0A21BB30BE40BF50B4E
:10079000661F771F881F991F1A9469F760957095D7
:1007A000809590959B01AC01BD01CF010895EE0F9E
:0E07B000FF1F0590F491E02D0994F894FFCFFF
:1007BE0030303A30303A3030003031323334353632
:1007CE0037383941424344454600307800537973F7
:1007DE0074656D20737461727475702E2E2E2E00DA
:1007EE0054696D653A2000202020202054494D4543
:0807FE003A20202020202000F9
:00000001FF
