S01000007573696E673539352E737265634B
S11300000C942A000C9447000C9447000C9447006D
S11300100C9447000C9447000C9447000C94470040
S11300200C9447000C9447000C9447000C94470030
S11300300C9447000C9447000C9447000C94470020
S11300400C9447000C9447000C9447000C94470010
S11300500C94470011241FBECFE5D4E0DEBFCDBF12
S113006010E0A0E6B0E0E8EFF1E002C005900D92E8
S1130070AA36B107D9F720E0AAE6B0E001C01D9284
S1130080AB36B207E1F70E94DE000C94FA000C9440
S1130090000087B38FEF87BB8F9A0895C79A81E0DA
S11300A0982F9A95F1F7C7988A95F1F70895C49A0D
S11300B0C4980895C59AC5980895C69AC69808958F
S11300C0979A979808950F931F93CF93DF938C017A
S11300D0D62FC8E0DD2314F4C09A01C0C098C8012B
S11300E00E945700DD0FC150A9F7DF91CF911F91F6
S11300F00F9108950F931F93CF93DF938C01D62F05
S1130100C8E0DD2314F4C19A01C0C198C8010E945B
S11301105A00DD0FC150A9F7DF91CF911F910F91C4
S113012008950F931F93CF93DF938C01D62FC8E0CC
S1130130DD2314F4C29A01C0C298C8010E945D0074
S1130140DD0FC150A9F7DF91CF911F910F91089551
S11301500F931F93CF93DF938C01D62FC8E0DD2339
S113016014F4C39A01C0C398C8010E946000DD0F53
S1130170C150A9F7DF91CF911F910F910895FF927C
S11301800F931F93CF93DF93EC01F42E122F0E9451
S113019063006F2DCE010E947A00612FCE010E9470
S11301A09100602FCE010E94A800CE010E944E0053
S11301B0DF91CF911F910F91FF9008958AE690E00F
S11301C00E9449002FEF83EC99E021508040904039
S11301D0E1F700C00000C0E6D0E00E8110E0298104
S11301E030E04B8150E06D8170E08AE690E00E943F
S10B01F0BF00F3CFF894FFCF28
S10D01F83F065B4F666D7D077F6FC5
S9030000FC
