:100000000C942B000C9453000C9453000C9453004C
:100010000C9453000C9453000C94240B0C94530038
:100020000C9453000C9453000C9453000C94530004
:100030000C9453000C9453000C9453000C945300F4
:100040000C9453000C9453000C9453000C945300E4
:100050000C945300840B11241FBECFE5D4E0DEBF07
:10006000CDBF12E0A0E6B0E0EAE9FDE102C00590F4
:100070000D92A038B107D9F723E0A0E8B2E001C0A3
:100080001D92A130B207E1F710E0CBE2D0E004C04E
:100090002197FE010E94C70BCA32D107C9F70E94FF
:1000A0007C0A0C94CB0E0C940000442311F0DF9AD0
:1000B00001C0DF98862F82958F7080FF02C0D89A8A
:1000C00001C0D89881FF02C0D99A01C0D99882FF97
:1000D00002C0DA9A01C0DA98887011F0DB9A01C088
:1000E000DB98DD9885E08A95F1F70000DD9A95E0D0
:1000F0009A95F1F70000DD988FE891E00197F1F70C
:1001000000C00000442311F0DF9A01C0DF9860FFB7
:1001100002C0D89A01C0D89861FF02C0D99A01C024
:10012000D99862FF02C0DA9A01C0DA9863FF02C070
:10013000DB9A01C0DB98DD9895E09A95F1F7000015
:10014000DD9A85E08A95F1F70000DD988FE891E06F
:100150000197F1F700C000000895CF93DF93EC0101
:1001600088819FEF980F923038F0843029F082E038
:10017000888380E1898308C089818B7F803121F069
:1001800082E0888380E18983D59AD79AD09AD19AE0
:10019000D29AD39A8FE79BEB0197F1F700C000004A
:1001A00040E063E3CE010E9455008FE39FE1019799
:1001B000F1F700C0000040E063E3CE010E9455006B
:1001C0008FE39FE10197F1F700C0000040E063E397
:1001D000CE010E9455008FE39FE10197F1F700C027
:1001E000000040E062E3CE010E9455008FE39FE1F2
:1001F0000197F1F700C0000040E068E2CE010E94E4
:1002000055008FE39FE10197F1F700C0000040E047
:1002100066E0CE010E9455008FE39FE10197F1F760
:1002200000C0000040E06CE0CE010E9455008FE36A
:100230009FE10197F1F700C0000040E061E0CE01CE
:100240000E9455008FE39FE10197F1F700C0000085
:1002500040E062E0CE010E9455008FE39FE10197EC
:10026000F1F700C00000DF91CF910895CF93DF93A5
:10027000EC0140E061E00E9455008FE39FE10197AF
:10028000F1F700C0000040E062E0CE010E9455009E
:100290008FE39FE10197F1F700C00000DF91CF915C
:1002A0000895FC0120812130A1F0223021F4662341
:1002B00021F160EC17C02430A9F4FC012181203128
:1002C00051F0662351F0613051F0623051F064ED2D
:1002D00009C060E807C064ED05C060E803C060ECD9
:1002E00001C064E9640F40E00E9455008FE39FE184
:1002F0000197F1F700C00000089560E8F3CFBF92C6
:10030000CF92DF92EF92FF920F931F93CF93DF93E1
:100310008C0179010E94510180E1E81687E2F8061C
:1003200060F19701329522952F7023273F70232784
:10033000A7E4B3E00E94A40BEC01D695C795D6952F
:10034000C795D695C7956C2F605D40E1C8010E94A6
:100350005500CC23A1F09C2F9150F1F78C2F8150A8
:1003600020EF38ED829FE001839FD00D1124C7015B
:1003700080519742C80FD91F03C0E70101C0E701B0
:1003800088EEE81683E0F80658F19E013695279529
:100390003695279536952795A5ECB0E20E94A40BDB
:1003A0006C01D694C794D694C794D694C794D69427
:1003B000C79460E36C0D40E1C8010E945500CC2059
:1003C00079F09C2D9150F1F7C85ED340CA9428E192
:1003D0003CEFC29EC001C39E900D1124C80FD91FCF
:1003E00084E6E816F104F8F09E01369527953695D7
:1003F0002795ABE7B4E10E94A40B6C01D694C79497
:1004000060E36C0D40E1C8010E945500CC2059F01A
:100410009C2D9150F1F7C456D109CA9484E6C89E28
:10042000C019D10911248AE0E816F104F0F09E0108
:10043000ADECBCEC0E94A40B7C01F694E794F6941E
:10044000E794F694E79460E36E0D40E1C8010E94E2
:100450005500EE2051F09E2D9150F1F72A97EA9425
:100460008AE0E89EC019D10911246C2F605D40E13B
:10047000C8010E945500DF91CF911F910F91FF900D
:10048000EF90DF90CF90BF900895EF92FF920F937F
:100490001F93CF93DF93FB01442301F16081662317
:1004A000E9F0DC0111962C912223C1F0D42F8F01A9
:1004B0007C010F5F1F4FC0E00AC0F80161918F01FE
:1004C000662361F0D70111968C918C1739F040E1C9
:1004D000C7010E945500CF5FCD13EFCFDF91CF91C1
:1004E0001F910F91FF90EF900895EF92FF920F935D
:1004F0001F93CF93DF938C017901FC01C181D0E080
:10050000C41BD1090E9451014C2FB701C8010E94A0
:100510004502DF91CF911F910F91FF90EF900895C9
:10052000959894988D988C9880E008958D988C98E3
:1005300085E38A95F1F700008C9A949885E38A9573
:10054000F1F700008D9A959885E38A95F1F7000000
:1005500008958D9A95988C9A949885E38A95F1F7E9
:1005600000008D9895E39A95F1F700008C988FE341
:100570009CE90197F1F700C00000089528E030E001
:1005800080E8982F962311F08C9802C08C9A94984A
:1005900095E39A95F1F700008D9895E39A95F1F718
:1005A00000008D9A959895E39A95F1F7000086954D
:1005B0002150310931F78C9885E38A95F1F70000D5
:1005C0008D9895E39A95F1F7000080B3829581703C
:1005D00095E39A95F1F700008D9A959895E39A9591
:1005E000F1F7000008950F931F93CF938C01C42F50
:1005F0000E94BE02CC2321F0C13039F080E006C059
:10060000C8010E94A90281E001C081E0CF911F9141
:100610000F9108958C9845E34A95F1F7000028E082
:1006200030E080E090E88D9845E34A95F1F70000CE
:100630008C988499892B8D9A959845E34A95F1F782
:10064000000096952150310971F7611102C08C9814
:1006500002C08C9A949895E39A95F1F700008D98D2
:1006600045E34A95F1F700008D9A959895E39A95A0
:10067000F1F7000008950F931F93CF93DF93EC01E0
:100680008B01442319F0413059F011C060E00E9401
:100690000A03F8018083CE010E94A90281E008C00C
:1006A00061E00E940A03F801808381E001C080E0DC
:1006B000DF91CF911F910F9108951F93CF93DF93F7
:1006C000EC01162F442319F0413029F00DC00E948F
:1006D000BE0281E00AC0672F0E94BE02612FCE01D8
:1006E0000E94BE0281E001C080E0DF91CF911F91A6
:1006F0000895EF92FF920F931F93CF93DF93EC0136
:10070000162F7A01022F0E949602612F660FCE01EA
:100710000E94BE02402FB701CE010E945D03DF910F
:10072000CF911F910F91FF90EF9008951F93CF935A
:10073000DF93EC01142F2981AB0168810E947903BA
:1007400040E0612FCE010E94F30281E0DF91CF9162
:100750001F910895EF92FF920F931F93CF93DF9312
:100760008C01C62F7A01D22F0E949602CC0F6C2FDB
:10077000C8010E94BE024D2FB701C8010E945D034F
:10078000C8010E9496026C2F6160C8010E94BE02DF
:1007900080E0DF91CF911F910F91FF90EF9008952E
:1007A000CF92DF92EF92FF920F931F93CF937C0132
:1007B0006A01022FFC012181AB0160810E94AA0322
:1007C00010E001501109101611067CF4C0E0B601CA
:1007D0006C0F711D41E0C7010E943B03CF5FEC2FFE
:1007E000F0E0E017F1079CF301C0C0E0B6016C0F28
:1007F000711D40E0C7010E943B038C2FCF911F91D8
:100800000F91FF90EF90DF90CF9008958FE085BB20
:1008100080EF84BB8AE18A95F1F700C0989B08C0FD
:10082000999B08C09A9B08C09B991DC08CE005C08D
:1008300080E003C084E001C088E090EF95BB9FE0BA
:1008400094BB9AE19A95F1F700C09C9B0FC09D99CB
:1008500002C08F5F08959E9902C08E5F08959F9990
:1008600004C08D5F08958FEF08958FEF08958091F4
:10087000B2029091B3022AE030E0B9010E94900BDD
:1008800062957295707F7627607F7627AB01480F5F
:10089000591F5093A5024093A4028091B0029091F9
:1008A000B102B9010E94900B62957295707F762714
:1008B000607F7627860F971F9093A3028093A202F2
:1008C0008091AE029091AF02B9010E94900B6295A7
:1008D0007295707F7627607F7627860F971F90939B
:1008E000A1028093A0028091AC029091AD02B90167
:1008F0000E94900B62957295707F7627607F7627B5
:10090000860F971F90939F0280939E028091AA0268
:100910009091AB02B9010E94900B62957295707F25
:100920007627607F7627860F971F90939D0280938E
:100930009C028091A8029091A902B9010E94900B9B
:1009400062957295707F7627607F7627860F971F56
:1009500090939B0280939A028091A6029091A702A5
:10096000B9010E94900B62957295707F7627607F27
:100970007627860F971F909399028093980260E0E4
:1009800070E08DEF92E00E9496034091A20261E038
:1009900070E08DEF92E00E9496034091A00262E029
:1009A00070E08DEF92E00E94960340919E0263E01A
:1009B00070E08DEF92E00E94960340919C0264E00B
:1009C00070E08DEF92E00E94960340919A0265E0FC
:1009D00070E08DEF92E00E9496034091980266E0ED
:1009E00070E08DEF92E00E94960308950F931F939D
:1009F000CF93DF930E94060490E09093FC028093D3
:100A0000FB028091F902823008F04DC028EC30E002
:100A100040E060E08FEF92E00E9475028091FB025F
:100A20009091FC028F3F9105F1F1880F991FFC0115
:100A3000EB56FF4F208131812093FA024091F90259
:100A40003327E42FF0E0EE0FFF1FE952FD4F318313
:100A5000208361E08FEF92E00E947F0129ED30E07A
:100A600042E061E08FEF92E00E9475028091F9020E
:100A70008F5F8093F9022FEF89E698E12150804043
:100A80009040E1F700C000008091F902823021F42B
:100A90008FEF92E00E9436010E94060490E090934E
:100AA000FC028093FB028091F9028250823008F0B0
:100AB00045C028EE30E040E060E08FEF92E00E9419
:100AC00075028091FB029091FC028F3F9105B1F17C
:100AD000880F991FFC01EB56FF4F20813181209335
:100AE000FA024091F9023327E42FF0E0EE0FFF1FE6
:100AF000E952FD4F3183208361E08FEF92E00E9445
:100B00007F018091F9028F5F8093F9022FEF89E6D0
:100B100098E1215080409040E1F700C000008091B2
:100B2000F902843021F48FEF92E00E9436010E9496
:100B3000060490E09093FC028093FB028091F902FE
:100B40008450823008F045C027EF30E040E060E09C
:100B50008FEF92E00E9475028091FB029091FC025F
:100B60008F3F9105B1F1880F991FFC01EB56FF4FA4
:100B7000208131812093FA024091F9023327E42F3A
:100B8000F0E0EE0FFF1FE952FD4F3183208361E05B
:100B90008FEF92E00E947F018091F9028F5F809336
:100BA000F9022FEF89E698E1215080409040E1F76B
:100BB00000C000008091F902863021F48FEF92E0AE
:100BC0000E9436010E94060490E09093FC028093FC
:100BD000FB028091F9028650823008F045C027E080
:100BE00031E040E060E08FEF92E00E94750280917A
:100BF000FB029091FC028F3F9105B1F1880F991F84
:100C0000FC01EB56FF4F208131812093FA02409185
:100C1000F9023327E42FF0E0EE0FFF1FE952FD4FFA
:100C20003183208361E08FEF92E00E947F01809109
:100C3000F9028F5F8093F9022FEF89E698E1215046
:100C400080409040E1F700C000008091F9028830B8
:100C500021F48FEF92E00E9436010E94060490E09A
:100C60009093FC028093FB028091F90288508230BD
:100C700008F045C026E131E040E060E08FEF92E00F
:100C80000E9475028091FB029091FC028F3F9105BA
:100C9000B1F1880F991FFC01EB56FF4F2081318184
:100CA0002093FA024091F9023327E42FF0E0EE0F8F
:100CB000FF1FE952FD4F3183208361E08FEF92E007
:100CC0000E947F018091F9028F5F8093F9022FEFDC
:100CD00089E698E1215080409040E1F700C0000093
:100CE0008091F9028A3021F48FEF92E00E94360160
:100CF0000E94060490E09093FC028093FB02809196
:100D0000F9028A50823008F045C026E231E040E026
:100D100060E08FEF92E00E9475028091FB0290915B
:100D2000FC028F3F9105B1F1880F991FFC01EB5632
:100D3000FF4F208131812093FA024091F90233273D
:100D4000E42FF0E0EE0FFF1FE952FD4F31832083C7
:100D500061E08FEF92E00E947F018091F9028F5F46
:100D60008093F9022FEF89E698E12150804090406E
:100D7000E1F700C000008091F9028C3021F48FEF80
:100D800092E00E9436010E94060490E09093FC02DB
:100D90008093FB028091F9028C50823008F045C0AC
:100DA00025E331E040E060E08FEF92E00E947502C1
:100DB0008091FB029091FC028F3F9105B1F1880F69
:100DC000991FFC01EB56FF4F208131812093FA02DD
:100DD0004091F9023327E42FF0E0EE0FFF1FE952B4
:100DE000FD4F3183208361E08FEF92E00E947F010D
:100DF0008091F9028F5F8093F9022FEF89E698E1E5
:100E0000215080409040E1F700C000008091F9023D
:100E10008E3021F48FEF92E00E9436010E9406048A
:100E200090E09093FC028093FB028091F9028E3057
:100E300009F067C124E431E040E060E08FEF92E028
:100E40000E94750222E531E040E061E08FEF92E020
:100E50000E9475028091FB029091FC020E9739F47A
:100E600084E18093F9028FEF92E00E943601809135
:100E7000FB029091FC020C9709F043C18FEF92E0C6
:100E80000E9436012FEF89E698E121508040904082
:100E9000E1F700C000001092F9020E94060490E001
:100EA0009093FC028093FB022CC12FEF83ED90E323
:100EB000215080409040E1F700C000008FEF92E0A9
:100EC0000E9436012FEF89E698E121508040904042
:100ED000E1F700C0000085E18093F9022AC022E614
:100EE00031E040E060E08FEF92E00E9475029E01E9
:100EF00046E061E08FEF92E00E947F0123E731E05E
:100F000049E061E08FEF92E00E9475022FEF80E7E9
:100F100092E0215080409040E1F700C0000021960F
:100F2000C536D105E1F6C1CF8091F902853109F0CE
:100F300011C125E731E040E060E08FEF92E00E94D0
:100F4000750226E831E040E061E08FEF92E00E9418
:100F50007502C7EDD2E08B818F938A818F9389814F
:100F60008F9388818F9307E911E01F930F9382ED90
:100F700092E09F938F930E94F30B8F818F938E81CA
:100F80008F938D818F938C818F931F930F938DEC13
:100F900092E09F938F930E94F30B8B858F938A85AA
:100FA0008F9389858F9388858F931F930F9388ECF8
:100FB00092E09F938F930E94F30B8F858F938E8582
:100FC0008F938D858F938C858F931F930F9383ECD5
:100FD00092E09F938F930E94F30B8DB79EB78096FC
:100FE0000FB6F8949EBF0FBE8DBF8B898F938A89F1
:100FF0008F9389898F9388898F931F930F938EEB9B
:1010000092E09F938F930E94F30B8F898F938E8929
:101010008F938D898F938C898F931F930F9389EB77
:1010200092E09F938F930E94F30B8B8D8F938A8D09
:101030008F93898D8F93888D8F931F930F9384EB5C
:1010400092E09F938F930E94F30B82ED92E00E94B7
:10105000CD0B9093B3028093B2028DEC92E00E948C
:10106000CD0B9093B1028093B00288EC92E00E9485
:10107000CD0B9093AF028093AE0283EC92E00E947E
:10108000CD0B9093AD028093AC028EEB92E00E9468
:10109000CD0B9093AB028093AA0289EB92E00E9461
:1010A000CD0B9093A9028093A80284EB92E00E945A
:1010B000CD0B9093A7028093A6020E9437049FEF66
:1010C00027EA81E6915020408040E1F700C000000F
:1010D0008FEF92E00E9436019FEF29E688E1915060
:1010E00020408040E1F700C0000089E18093F902D0
:1010F0008DB79EB748960FB6F8949EBF0FBE8DBFB2
:1011000029C08091F902843109F00ECF22E631E046
:1011100040E060E08FEF92E00E94750220E030E056
:1011200046E061E08FEF92E00E947F0123E731E02B
:1011300049E061E08FEF92E00E9475029FEF20E7A7
:1011400082E0915020408040E1F700C00000C1E003
:10115000D0E0C5CEDF91CF911F910F91089587B355
:101160008FEF87BB8F9A0895C79A81E0982F9A9541
:10117000F1F7C7988A95F1F70895C49AC49808952D
:10118000C59AC5980895C69AC6980895979A97984B
:101190000895CF93DF93D82FC8E0DD2314F4C09ACD
:1011A00001C0C0980E94BD08DD0FC150B1F7DF91AA
:1011B000CF910895CF93DF93D82FC8E0DD2314F4A7
:1011C000C19A01C0C1980E94C008DD0FC150B1F79B
:1011D000DF91CF910895CF93DF93D82FC8E0DD231F
:1011E00014F4C29A01C0C2980E94C308DD0FC15016
:1011F000B1F7DF91CF910895CF93DF93D82FC8E057
:10120000DD2314F4C39A01C0C3980E94C608DD0F01
:10121000C150B1F7DF91CF910895CF93DF93C0E82C
:10122000D2E0EA81F0E0E657FF4F80810E94C908D2
:10123000EB81F0E0E657FF4F80810E94DA08EC81F5
:10124000F0E0E657FF4F80810E94EB08ED81F0E06F
:10125000E657FF4F80810E94FC080E94B408DF918E
:10126000CF910895809191022DEE280F91E02D30BD
:1012700008F090E0911106C091E0823208F490E00D
:10128000992391F099E3899F912D11249695969534
:10129000990F292F220F220F220F920F891B809363
:1012A000970284E085BB21C0811106C082E1809352
:1012B000970282E085BB19C0803231F488E08093C8
:1012C000970284E085BB11C0813231F489E08093BC
:1012D000970284E085BB09C0823119F484E085BBA4
:1012E00004C08093970282E085BBAFE8B2E08C91A6
:1012F000E0E8F2E0982F9F70908390E095958795B5
:101300009595879595958795959587958770818310
:1013100011968C911197982F9F70928390E09595DC
:1013200087959595879595958795959587958770D8
:10133000838380919702982F9F70948390E0959576
:1013400087959595879595958795959587958770B8
:10135000858313968C911397982F9F70968390E0B6
:101360009595879595958795959587959595879565
:101370008770878314968C911497982F9F7090870D
:1013800090E09595879595958795959587959595F1
:1013900087958770818715968C911597982F9F70E8
:1013A000928790E0959587959595879595958795E2
:1013B000959587958770838716968C91982F9F7047
:1013C000948790E0959587959595879595958795C0
:1013D00095958795877085870895CF93DF93C0E8AB
:1013E000D2E0EE81F0E0EE0FFF1FE658FF4F2081C4
:1013F000318143E060E08FEF92E00E947502EA8560
:10140000E1110FC080918B02813069F52091740049
:101410003091750040E061E08FEF92E00E9475022C
:101420002FC0E13079F480918B028130E1F420917A
:1014300076003091770040E061E08FEF92E00E940B
:1014400075021EC0E23079F480918B02813059F42C
:10145000209178003091790040E061E08FEF92E0D8
:101460000E9475020DC0F0E0EE0FFF1FE05AFF4F23
:101470002081318140E061E08FEF92E00E947502AF
:10148000C0E8D2E0298530E049E061E08FEF92E0EA
:101490000E947F01288530E04AE061E08FEF92E012
:1014A0000E947F012CE931E04BE061E08FEF92E098
:1014B0000E9475022091940030E04CE061E08FEFD3
:1014C00092E00E947F012D8530E04EE061E08FEFD9
:1014D00092E00E947F012C8530E04FE061E08FEFC9
:1014E00092E00E947F018FE39CE90197F1F700C031
:1014F0000000DF91CF9108958FEF84BB15BA8DEF77
:1015000092E00E9490028FEF92E00E94AD000E9454
:10151000AF082FEF81EE94E0215080409040E1F73A
:1015200000C000002EE931E040E060E08FEF92E083
:101530000E9475022FEF83ED90E321508040904090
:10154000E1F700C000008FEF92E00E943601C0E09A
:10155000D0E022E631E040E060E08FEF92E00E94D0
:1015600075029E0147E061E08FEF92E00E947F01EB
:1015700023E731E04AE061E08FEF92E00E947502DC
:101580002FEF80E792E0215080409040E1F700C0CB
:1015900000002196C536D105E1F62FEF83ED90E3EB
:1015A000215080409040E1F700C000008FEF92E0B2
:1015B0000E9436012FEF89E698E12150804090404B
:1015C000E1F700C00000789484E08EBD80E189BF1F
:1015D00084E294EF9BBD8ABD0E94060490E0909344
:1015E000FC028093FB02039791F40E94060490E0B2
:1015F0009093FC028093FB028091F902873160F79F
:101600000E94F6048091F9028731D0F3E5CF0E9461
:10161000060490E09093FC028093FB0228E04FE8E0
:1016200052E060E070E08DEF92E00E94D0030E94F3
:1016300032090E940D090E94ED098FE99FE0019790
:10164000F1F700C00000C8CF1F920F920FB60F92A3
:1016500011242F938F939F93809191022DEE280F49
:1016600091E02D3008F090E0911106C091E08232B7
:1016700008F490E0992391F099E3899F912D11242A
:1016800096959695990F292F220F220F220F920FD0
:10169000891B8093970284E085BB21C0811106C01D
:1016A00082E18093970282E085BB19C0803231F4D9
:1016B00088E08093970284E085BB11C0813231F4C9
:1016C00089E08093970284E085BB09C0823119F4D8
:1016D00084E085BB04C08093970282E085BB95B30C
:1016E00081E0892785BB2FEF89E698E12150804072
:1016F0009040E1F700C000009F918F912F910F90D3
:101700000FBE0F901F901895EFEFF2E082E08083FC
:1017100080E18183EDEFF2E088E680831182089515
:1017200097FB072E16F4009407D077FD09D00E948E
:10173000B30B07FC05D03EF4909581959F4F08951B
:10174000709561957F4F0895A29FB001B39FC0012E
:10175000A39F700D811D1124911DB29F700D811DDD
:101760001124911D0895AA1BBB1B51E107C0AA1F9C
:10177000BB1FA617B70710F0A61BB70B881F991F32
:101780005A95A9F780959095BC01CD010895EE0F6B
:10179000FF1F0590F491E02D0994FC0188279927FB
:1017A000E89421912032E9F3293010F02E30C8F36B
:1017B0002B3241F02D3239F4689404C00E94EB0BB7
:1017C000820F911D219120532A30C0F31EF4909571
:1017D00081959F4F08957AE0979F902D879F802D48
:1017E000910D11240895AEE0B0E0E9EFFBE00C9418
:1017F000A20E0D891E8986E08C831A8309838FEFE0
:101800009FE79E838D83AE01475E5F4F6F89788D22
:10181000CE0101960E94160C2F813885F801E20F47
:10182000F31F10822E96E4E00C94BE0EACE0B0E004
:10183000ECE1FCE00C94940E7C016B018A01FC014C
:1018400017821682838181FFBDC1CE0101964C01B2
:10185000F7019381F60193FD859193FF81916F01CB
:10186000882309F4ABC1853239F493FD859193FF48
:1018700081916F01853229F4B70190E00E94FE0D3D
:10188000E7CF512C312C20E02032A0F48B3269F0CC
:1018900030F4803259F0833269F420612CC08D32EB
:1018A00039F0803339F4216026C02260246023C0DF
:1018B000286021C027FD27C030ED380F3A3078F47A
:1018C00026FF06C0FAE05F9E300D1124532E13C090
:1018D0008AE0389E300D1124332E20620CC08E32E7
:1018E00021F426FD6BC1206406C08C3611F42068FB
:1018F00002C0883641F4F60193FD859193FF8191F2
:101900006F018111C1CF982F9F7D9554933028F49A
:101910000C5F1F4FFFE3F9830DC0833631F083372F
:1019200071F0833509F05BC022C0F80180818983A2
:101930000E5F1F4F44244394512C540115C03801AD
:10194000F2E06F0E711CF801A080B18026FF03C089
:10195000652D70E002C06FEF7FEFC5012C870E94FC
:10196000F30D2C0183012C852F77222E17C038010F
:10197000F2E06F0E711CF801A080B18026FF03C059
:10198000652D70E002C06FEF7FEFC5012C870E94CC
:10199000E80D2C012C852068222E830123FC1BC01E
:1019A000832D90E048165906B0F4B70180E290E02C
:1019B0000E94FE0D3A94F4CFF50127FC859127FE95
:1019C00081915F01B70190E00E94FE0D31103A94C1
:1019D000F1E04F1A51084114510471F7E5C0843603
:1019E00011F0893639F5F80127FF07C06081718150
:1019F000828193810C5F1F4F08C060817181072E27
:101A0000000C880B990B0E5F1F4F2F76722E97FFDD
:101A100009C090958095709561957F4F8F4F9F4F2E
:101A20002068722E2AE030E0A4010E94360EA82E13
:101A3000A81844C0853729F42F7EB22E2AE030E062
:101A400025C0F22FF97FBF2E8F36C1F018F48835EC
:101A500079F0B4C0803719F0883721F0AFC02F2F4C
:101A60002061B22EB4FE0DC08B2D8460B82E09C04B
:101A700024FF0AC09F2F9660B92E06C028E030E0F0
:101A800005C020E130E002C020E132E0F801B7FEFD
:101A900007C060817181828193810C5F1F4F06C0F6
:101AA0006081718180E090E00E5F1F4FA4010E9471
:101AB000360EA82EA818FB2DFF777F2E76FE0BC0C2
:101AC000372D3E7FA51450F474FE0AC072FC08C086
:101AD000372D3E7E05C0BA2C372D03C0BA2C01C06D
:101AE000B52C34FF0DC0FE01EA0DF11D808180335D
:101AF00011F4397E09C032FF06C0B394B39404C018
:101B0000832F867809F0B39433FD13C030FF06C0ED
:101B10005A2CB31418F4530C5B18B32CB31468F498
:101B2000B70180E290E03C870E94FE0DB3943C85B3
:101B3000F5CFB31410F43B1801C0312C34FF12C0A0
:101B4000B70180E390E03C870E94FE0D3C8532FFA8
:101B500017C031FD03C088E790E002C088E590E03F
:101B6000B7010CC0832F867859F031FF02C08BE299
:101B700001C080E237FD8DE2B70190E00E94FE0DCA
:101B8000A51438F4B70180E390E00E94FE0D5A944A
:101B9000F7CFAA94F401EA0DF11D8081B70190E01E
:101BA0000E94FE0DA110F5CF332009F451CEB701EC
:101BB00080E290E00E94FE0D3A94F6CFF701868114
:101BC000978102C08FEF9FEF2C96E2E10C94B00E4C
:101BD000FC010590615070400110D8F780959095F8
:101BE0008E0F9F1F0895FC016150704001900110FD
:101BF000D8F7809590958E0F9F1F08950F931F9390
:101C0000CF93DF93FB01238121FD03C08FEF9FEF73
:101C100028C022FF16C04681578124813581421792
:101C2000530744F4A081B1819D012F5F3F4F318361
:101C300020838C93268137812F5F3F4F3783268304
:101C400010C0EB01092F182F0084F185E02D0995B4
:101C5000892BE1F68E819F8101969F838E83812F50
:101C6000902FDF91CF911F910F910895FA01AA272C
:101C7000283051F1203181F1E8946F936E7F6E5FCF
:101C80007F4F8F4F9F4FAF4FB1E03ED0B4E03CD07D
:101C9000670F781F891F9A1FA11D680F791F8A1F60
:101CA000911DA11D6A0F711D811D911DA11D20D0C7
:101CB00009F468943F912AE0269F11243019305D81
:101CC0003193DEF6CF010895462F4770405D419372
:101CD000B3E00FD0C9F7F6CF462F4F70405D4A33BF
:101CE00018F0495D31FD4052419302D0A9F7EACF87
:101CF000B4E0A6959795879577956795BA95C9F7B6
:101D000000976105710508959B01AC010A2E0694A8
:101D10005795479537952795BA95C9F7620F731F61
:101D2000841F951FA01D08952F923F924F925F929E
:101D30006F927F928F929F92AF92BF92CF92DF92DB
:101D4000EF92FF920F931F93CF93DF93CDB7DEB740
:101D5000CA1BDB0B0FB6F894DEBF0FBECDBF0994D4
:101D60002A88398848885F846E847D848C849B842B
:101D7000AA84B984C884DF80EE80FD800C811B8139
:101D8000AA81B981CE0FD11D0FB6F894DEBF0FBE68
:0A1D9000CDBFED010895F894FFCFD8
:101D9A00DF00AF01B901C301CD01D701E101EB01B8
:101DAA00F501FF01090213021D02DF0027023302B7
:101DBA003F024C025902660272023F065B4F666D91
:101DCA007D077F6F14010002000300000004000574
:101DDA0000060000000700080009000000000000DB
:101DEA000000000000000030313233343536373815
:101DFA003941424344454600454E544552205345D5
:101E0A00434F4E443A20202000202020202020202A
:101E1A002020202020202000454E544552204D49A4
:101E2A004E5554453A2000454E54455220484F5588
:101E3A00523A2020202000454E5445522044415910
:101E4A003A2020202000454E544552204441544512
:101E5A003A2020202000454E544552204D4F4E54E2
:101E6A00483A202000454E54455220594541523A9D
:101E7A0020202000544150202320544F204C4F4111
:101E8A004400544150202A20544F2043414E434598
:101E9A004C005550444154494E472054494D452E13
:101EAA002E2E00250054494D452055504441544595
:101EBA00442120202000202020205468616E6B20BD
:101ECA00596F752E2E2E0025642564002C00535957
:101EDA005354454D20535441525455502E2E0020F0
:101EEA004A414E5541525920002020202046454261
:101EFA002E20002020204D4152434820002020203F
:101F0A00415052494C200020202020204D41592088
:101F1A0000202020204A554E452000202020204A1B
:101F2A00554C592000202041554755535420002034
:101F3A002020534550542E2000204F43544F4245F1
:101F4A005220004E4F56454D4245522000444543CB
:101F5A00454D4245522000202053554E44415920B8
:101F6A0020200020204D4F4E44415920202000209F
:101F7A0020545545534441592020200020574544B8
:101F8A004E45534441592020002054485552534449
:101F9A0041592020200020204652494441592020FE
:101FAA0020002053415455524441592020202000FA
:00000001FF
