:100000000C942B000C9453000C9453000C9453004C
:100010000C9453000C9453000C9453000C94530014
:100020000C9453000C9453000C9453000C94530004
:100030000C9453000C9453000C9453000C945300F4
:100040000C9453000C9453000C9453000C945300E4
:100050000C9453005C0211241FBECFE5D4E0DEBF38
:10006000CDBF10E0A0E6B0E0E6EDF4E002C0059000
:100070000D92A63BB107D9F720E0A6EBB0E001C096
:100080001D92AE3CB207E1F710E0CBE2D0E004C035
:100090002197FE010E946302CA32D107C9F70E946C
:1000A00005020C9469020C940000442311F0DD9ABF
:1000B00001C0DD98862F82958F7080FF02C0D89A8C
:1000C00001C0D89881FF02C0D99A01C0D99882FF97
:1000D00002C0DA9A01C0DA98887011F0DB9A01C088
:1000E000DB98DC9884E08A95F1F7DC9A94E09A95A5
:1000F000F1F7DC988BE291E00197F1F700C0000086
:10010000442311F0DD9A01C0DD9860FF02C0D89A47
:1001100001C0D89861FF02C0D99A01C0D99862FF86
:1001200002C0DA9A01C0DA9863FF02C0DB9A01C00C
:10013000DB98DC9894E09A95F1F7DC9A84E08A9554
:10014000F1F7DC988BE291E00197F1F700C0000035
:100150000895CF93DF93EC0188819FEF980F923041
:1001600038F0843029F082E0888380E1898308C0F8
:1001700089818B7F803121F082E0888380E18983CF
:10018000D49AD59AD09AD19AD29AD39A8FE99CE8E8
:100190000197F1F700C0000040E063E3CE010E9448
:1001A00055008FE697E10197F1F700C0000040E0AD
:1001B00063E3CE010E9455008FE697E10197F1F7C6
:1001C00000C0000040E063E3CE010E9455008FE6CE
:1001D00097E10197F1F700C0000040E062E3CE0133
:1001E0000E9455008FE697E10197F1F700C00000EB
:1001F00040E068E2CE010E9455008FE697E101974A
:10020000F1F700C0000040E066E0CE010E9455001A
:100210008FE697E10197F1F700C0000040E06CE045
:10022000CE010E9455008FE697E10197F1F700C0DB
:10023000000040E061E0CE010E9455008FE697E1AA
:100240000197F1F700C0000040E062E0CE010E949B
:1002500055008FE697E10197F1F700C00000DF91AC
:10026000CF910895CF93DF93EC0140E061E00E94CD
:1002700055008FE697E10197F1F700C0000040E0DC
:1002800062E0CE010E9455008FE697E10197F1F7F9
:1002900000C00000DF91CF910895FC012081213042
:1002A000A1F0223021F4662321F160EC17C0243044
:1002B000A9F4FC012181203151F0662351F0613015
:1002C00051F0623051F064ED09C060E807C064EDA0
:1002D00005C060E803C060EC01C064E9640F40E061
:1002E0000E9455008FE697E10197F1F700C00000EA
:1002F000089560E8F3CF1F93CF93DF93EC01122FA3
:100300000E944D0140E1612FCE010E945500DF9116
:10031000CF911F910895EF92FF920F931F93CF9368
:10032000DF93FB01442301F160816623E9F0DC01E6
:1003300011962C912223C1F0D42F8F017C010F5FE5
:100340001F4FC0E00AC0F80161918F01662361F080
:10035000D70111968C918C1739F040E1C7010E94AA
:100360005500CF5FCD13EFCFDF91CF911F910F914C
:10037000FF90EF900895EF92FF920F931F93CF930A
:10038000DF938C017901FC01C181D0E0C41BD1094C
:100390000E944D014C2FB701C8010E948B01DF91D3
:1003A000CF911F910F91FF90EF9008958FE085BB43
:1003B00080EF84BB84E18A95F1F7989B08C0999BF4
:1003C00008C09A9B08C09B991CC08CE005C080E0C7
:1003D00003C084E001C088E090EF95BB9FE094BB30
:1003E00094E19A95F1F79C9B0FC09D9902C08F5F95
:1003F00008959E9902C08E5F08959F9904C08D5FF5
:1004000008958FEF08958FEF08952FEB84ED91E01D
:10041000215080409040E1F700C000008CEC90E05B
:100420000E94A9008CEC90E00E94320122E830E0AA
:1004300040E060E08CEC90E00E94BB0122E930E0FB
:1004400040E061E08CEC90E00E94BB012FE78EEE73
:1004500096E3215080409040E1F700C000008CEC12
:1004600090E00E943201C6EBD0E02EE930E041E09E
:1004700060E08CEC90E00E94BB010E94D60190E00D
:100480009093CB008093CA008F3F910571F3FC01DC
:10049000E05AFF4F808188832DEA30E040E061E040
:1004A0008CEC90E00E94BB01288149E061E08CEC7B
:1004B00090E00E947B01D9CFECECF0E082E08083F9
:1004C00080E181830895EE0FFF1F0590F491E02DE8
:0604D0000994F894FFCF2F
:1004D6003132334134353642373839432A302344B2
:1004E60000303132333435363738394142434445AA
:1004F6004600494E495449414C495A494E472E2EC9
:100506002E00506C656173652057616974004B4518
:100516005950414420544553542E2E2E0070726576
:06052600737365643A00E6
:00000001FF
