:100000000C942B000C9453000C9453000C9453004C
:100010000C9453000C9453000C9453000C94530014
:100020000C9453000C9453000C9453000C94530004
:100030000C9453000C9453000C94D6020C9453006F
:100040000C9453000C9453000C9453000C945300E4
:100050000C9453005D0311241FBECFE5D4E0DEBF36
:10006000CDBF10E0A0E6B0E0E6EFF6E002C00590FC
:100070000D92A03BB107D9F720E0A0EBB0E001C0A2
:100080001D92A23BB207E1F710E0CBE2D0E004C042
:100090002197FE010E947303CA32D107C9F70E945B
:1000A00090020C9479030C940000442311F0DF9A21
:1000B00001C0DF98862F82958F7080FF02C0D89A8A
:1000C00001C0D89881FF02C0D99A01C0D99882FF97
:1000D00002C0DA9A01C0DA98887011F0DB9A01C088
:1000E000DB98DD9885E08A95F1F70000DD9A95E0D0
:1000F0009A95F1F70000DD988FE891E00197F1F70C
:1001000000C00000442311F0DF9A01C0DF9860FFB7
:1001100002C0D89A01C0D89861FF02C0D99A01C024
:10012000D99862FF02C0DA9A01C0DA9863FF02C070
:10013000DB9A01C0DB98DD9895E09A95F1F7000015
:10014000DD9A85E08A95F1F70000DD988FE891E06F
:100150000197F1F700C000000895CF93DF93EC0101
:1001600088819FEF980F923038F0843029F082E038
:10017000888380E1898308C089818B7F803121F069
:1001800082E0888380E18983D59AD79AD09AD19AE0
:10019000D29AD39A8FE79BEB0197F1F700C000004A
:1001A00040E063E3CE010E9455008FE39FE1019799
:1001B000F1F700C0000040E063E3CE010E9455006B
:1001C0008FE39FE10197F1F700C0000040E063E397
:1001D000CE010E9455008FE39FE10197F1F700C027
:1001E000000040E062E3CE010E9455008FE39FE1F2
:1001F0000197F1F700C0000040E068E2CE010E94E4
:1002000055008FE39FE10197F1F700C0000040E047
:1002100066E0CE010E9455008FE39FE10197F1F760
:1002200000C0000040E06CE0CE010E9455008FE36A
:100230009FE10197F1F700C0000040E061E0CE01CE
:100240000E9455008FE39FE10197F1F700C0000085
:1002500040E062E0CE010E9455008FE39FE10197EC
:10026000F1F700C00000DF91CF910895CF93DF93A5
:10027000EC0140E061E00E9455008FE39FE10197AF
:10028000F1F700C0000040E062E0CE010E9455009E
:100290008FE39FE10197F1F700C00000DF91CF915C
:1002A0000895FC0120812130A1F0223021F4662341
:1002B00021F160EC17C02430A9F4FC012181203128
:1002C00051F0662351F0613051F0623051F064ED2D
:1002D00009C060E807C064ED05C060E803C060ECD9
:1002E00001C064E9640F40E00E9455008FE39FE184
:1002F0000197F1F700C00000089560E8F3CFBF92C6
:10030000CF92DF92EF92FF920F931F93CF93DF93E1
:100310008C0179010E94510180E1E81687E2F8061C
:1003200060F19701329522952F7023273F70232784
:10033000A7E4B3E00E946403EC01D695C795D69577
:10034000C795D695C7956C2F605D40E1C8010E94A6
:100350005500CC23A1F09C2F9150F1F78C2F8150A8
:1003600020EF38ED829FE001839FD00D1124C7015B
:1003700080519742C80FD91F03C0E70101C0E701B0
:1003800088EEE81683E0F80658F19E013695279529
:100390003695279536952795A5ECB0E20E94640323
:1003A0006C01D694C794D694C794D694C794D69427
:1003B000C79460E36C0D40E1C8010E945500CC2059
:1003C00079F09C2D9150F1F7C85ED340CA9428E192
:1003D0003CEFC29EC001C39E900D1124C80FD91FCF
:1003E00084E6E816F104F8F09E01369527953695D7
:1003F0002795ABE7B4E10E9464036C01D694C794DF
:1004000060E36C0D40E1C8010E945500CC2059F01A
:100410009C2D9150F1F7C456D109CA9484E6C89E28
:10042000C019D10911248AE0E816F104F0F09E0108
:10043000ADECBCEC0E9464037C01F694E794F69466
:10044000E794F694E79460E36E0D40E1C8010E94E2
:100450005500EE2051F09E2D9150F1F72A97EA9425
:100460008AE0E89EC019D10911246C2F605D40E13B
:10047000C8010E945500DF91CF911F910F91FF900D
:10048000EF90DF90CF90BF900895EF92FF920F937F
:100490001F93CF93DF93FB01442301F16081662317
:1004A000E9F0DC0111962C912223C1F0D42F8F01A9
:1004B0007C010F5F1F4FC0E00AC0F80161918F01FE
:1004C000662361F0D70111968C918C1739F040E1C9
:1004D000C7010E945500CF5FCD13EFCFDF91CF91C1
:1004E0001F910F91FF90EF900895EF92FF920F935D
:1004F0001F93CF93DF938C017901FC01C181D0E080
:10050000C41BD1090E9451014C2FB701C8010E94A0
:100510004502DF91CF911F910F91FF90EF900895C9
:1005200080EB90E00E94AD002FEF83ED90E321502F
:1005300080409040E1F700C0000080EB90E00E9416
:1005400036018FE39CE90197F1F700C0000021E735
:1005500030E040E060E080EB90E00E9475022EE722
:1005600030E040E061E080EB90E00E9475029FEF98
:1005700027EA81E6915020408040E1F700C000006A
:1005800080EB90E00E9436019FEF23ED80E39150D5
:1005900020408040E1F700C0000086B18F6886B936
:1005A00087B1846687B9369A7894FFCF1F920F92ED
:1005B0000FB60F9211242F933F934F935F936F9336
:1005C0007F938F939F93AF93BF93CF93DF93EF93DB
:1005D000FF93C4B185B1D0E00C2ECD2F000CCC1F01
:1005E000DD0B000CCC1FDD1F90E0880F991F880FDA
:1005F000991FC82BD92B2DE830E040E060E080EB5C
:1006000090E00E9475022EE930E040E061E080EB6E
:1006100090E00E9475029E014CE061E080EB90E06A
:100620000E947F01C83E83E0D80778F49E014CE029
:1006300061E080EB90E00E947F012DEA30E04FE026
:1006400061E080EB90E00E947502C436D10578F439
:100650009E014CE061E080EB90E00E947F012CEA7B
:1006600030E04EE061E080EB90E00E947502CA301D
:10067000D10578F49E014CE061E080EB90E00E94AF
:100680007F012BEA30E04DE061E080EB90E00E94DA
:100690007502369AFF91EF91DF91CF91BF91AF91A3
:1006A0009F918F917F916F915F914F913F912F918A
:1006B0000F900FBE0F901F901895E0EBF0E082E0D6
:1006C000808380E181830895A29FB001B39FC00120
:1006D000A39F700D811D1124911DB29F700D811D6E
:1006E0001124911D0895EE0FFF1F0590F491E02D48
:0606F0000994F894FFCF0D
:1006F6003031323334353637383941424344454652
:1007060000494E495449414C495A494E4700504CBC
:100716004541534520574149542E2E2E00544553EA
:100726005420494E2050524F475245535300504F84
:10073600542056616C75652E2E2E00202020000058
:00000001FF
