S00C000050574D302E73726563F4
S11300000C942A000C9434000C9434000C943400A6
S11300100C9434000C9434000C9434000C9434008C
S11300200C9434000C9434000C9434000C9434007C
S11300300C9434000C9434000C9434000C9434006C
S11300400C9434000C9434000C9434000C9434005C
S11300500C94340011241FBECFE5D4E0DEBFCDBF25
S11300600E9436000C9453000C94000088E087BB77
S113007018BA8CE683BF90E02FEF892F8CBFEFE294
S1130080F5E73197F1F700C000008F5F8F3FB1F7BC
S1130090822F8CBFEFE2F5E73197F1F700C0000043
S10D00A08150B9F7EACFF894FFCFBE
S9030000FC
