S0110000496E746572727570742E7372656346
S11300000C942A000C9434000C9434000C943400A6
S11300100C9434000C9434000C9434000C9434008C
S11300200C9434000C9434000C9434000C9434007C
S11300300C9434000C9434000C9434000C9434006C
S11300400C9434000C9434000C9434000C9434005C
S11300500C94340011241FBECFE5D4E0DEBFCDBF25
S11300600E9436000C944E000C9400008FEF84BB69
S113007015BA85BB2FE73FE492E121503040904010
S1130080E1F700C0000015BA2FE73FE492E12150E8
S113009030409040E1F700C00000EBCFF894FFCF70
S9030000FC
