S01A000053657452746354696D655F627574746F6E322E73726563F9
S11300000C942B000C9453000C9453000C94530048
S11300100C9453000C9453000C9453000C94530010
S11300200C9453000C9453000C9453000C94530000
S11300300C9453000C9453000C9453000C945300F0
S11300400C9453000C9453000C9453000C945300E0
S11300500C945300120311241FBECFE5D4E0DEBF7D
S1130060CDBF11E0A0E6B0E0E4E5F6E002C0059003
S11300700D92A431B107D9F721E0A4E1B1E001C0A8
S11300801D92AA32B207E1F710E0CBE2D0E004C03F
S11300902197FE010E941903CA32D107C9F70E94B1
S11300A0FB010C9428030C940000442311F0DF9A04
S11300B001C0DF98862F82958F7080FF02C0D89A86
S11300C001C0D89881FF02C0D99A01C0D99882FF93
S11300D002C0DA9A01C0DA98887011F0DB9A01C084
S11300E0DB98DD9885E08A95F1F70000DD9A95E0CC
S11300F09A95F1F70000DD988FE891E00197F1F708
S113010000C00000442311F0DF9A01C0DF9860FFB3
S113011002C0D89A01C0D89861FF02C0D99A01C020
S1130120D99862FF02C0DA9A01C0DA9863FF02C06C
S1130130DB9A01C0DB98DD9895E09A95F1F7000011
S1130140DD9A85E08A95F1F70000DD988FE891E06B
S11301500197F1F700C000000895CF93DF93EC01FD
S113016088819FEF980F923038F0843029F082E034
S1130170888380E1898308C089818B7F803121F065
S113018082E0888380E18983D59AD79AD09AD19ADC
S1130190D29AD39A8FE79BEB0197F1F700C0000046
S11301A040E063E3CE010E9455008FE39FE1019795
S11301B0F1F700C0000040E063E3CE010E94550067
S11301C08FE39FE10197F1F700C0000040E063E393
S11301D0CE010E9455008FE39FE10197F1F700C023
S11301E0000040E062E3CE010E9455008FE39FE1EE
S11301F00197F1F700C0000040E068E2CE010E94E0
S113020055008FE39FE10197F1F700C0000040E043
S113021066E0CE010E9455008FE39FE10197F1F75C
S113022000C0000040E06CE0CE010E9455008FE366
S11302309FE10197F1F700C0000040E061E0CE01CA
S11302400E9455008FE39FE10197F1F700C0000081
S113025040E062E0CE010E9455008FE39FE10197E8
S1130260F1F700C00000DF91CF910895CF93DF93A1
S1130270EC0140E061E00E9455008FE39FE10197AB
S1130280F1F700C0000040E062E0CE010E9455009A
S11302908FE39FE10197F1F700C00000DF91CF9158
S11302A00895FC0120812130A1F0223021F466233D
S11302B021F160EC17C02430A9F4FC012181203124
S11302C051F0662351F0613051F0623051F064ED29
S11302D009C060E807C064ED05C060E803C060ECD5
S11302E001C064E9640F40E00E9455008FE39FE180
S11302F00197F1F700C00000089560E8F3CFEF9292
S1130300FF920F931F93CF93DF93FB01442301F1DB
S113031060816623E9F0DC0111962C912223C1F05F
S1130320D42F8F017C010F5F1F4FC0E00AC0F8017A
S113033061918F01662361F0D70111968C918C171E
S113034039F040E1C7010E945500CF5FCD13EFCFD4
S1130350DF91CF911F910F91FF90EF900895EF924D
S1130360FF920F931F93CF93DF938C017901FC01CC
S1130370C181D0E0C41BD1090E9451014C2FB701A7
S1130380C8010E947F01DF91CF911F910F91FF90CF
S1130390EF9008958FE085BB80EF84BB8AE18A9556
S11303A0F1F700C0989B08C0999B08C09A9B08C0AD
S11303B09B991DC08CE005C080E003C084E001C0AF
S11303C088E090EF95BB9FE094BB9AE19A95F1F792
S11303D000C09C9B0FC09D9902C08F5F08959E9999
S11303E002C08E5F08959F9904C08D5F08958FEFBA
S11303F008958FEF08952FEF80E792E02150804019
S11304009040E1F700C0000088E291E00E94AD0056
S113041088E291E00E94360122E930E040E060E0A9
S113042088E291E00E94AF0122EA30E040E061E01E
S113043088E291E00E94AF012FEF87EA91E6215014
S113044080409040E1F700C0000088E291E00E9403
S1130450360120EB30E040E060E088E291E00E9469
S1130460AF010E94CA0190E0909327018093260176
S11304708F3F910509F4CDC0409124014A5F20ECDF
S113048030E061E088E291E00E94AF01E091260152
S1130490F0912701E059FF4F9081909325018091BD
S11304A02401E82FF0E0EC5EFE4F90838F5F809391
S11304B024012FEF89E698E1215080409040E1F734
S11304C000C0000060E670E084E191E00E941F0338
S11304D0892B09F098C022EC30E040E060E088E22B
S11304E091E00E94AF0123ED30E046E061E088E254
S11304F091E00E94AF01C0E020EA30E04C2F61E0BF
S113050088E291E00E94AF012FEF83EC99E0215043
S113051080409040E1F700C00000CF5FCC3061F72D
S113052088E291E00E9436012FEF83ED90E32150A1
S113053080409040E1F700C000002BED30E044E043
S113054060E088E291E00E94AF0124EE30E041E0F7
S113055061E088E291E00E94AF012FEF80E792E032
S1130560215080409040E1F700C00000E6CF22EC2B
S113057030E040E060E088E291E00E94AF0123EDCA
S113058030E046E061E088E291E00E94AF01C0E023
S113059020EA30E04C2F61E088E291E00E94AF0154
S11305A02FEF83EC99E0215080409040E1F700C0A8
S11305B00000CF5FCC3061F788E291E00E94360101
S11305C02FEF83ED90E3215080409040E1F700C08D
S11305D0000024EF30E040E060E088E291E00E9417
S11305E0AF0124E031E040E061E088E291E00E9464
S11305F0AF012FEF80E792E0215080409040E1F777
S113060000C00000E6CF80912401843009F021CF9E
S1130610AECF60E670E084E191E00E941F03892B75
S113062091F759CFE8E2F1E082E0808380E18183B1
S11306300895EE0FFF1F0590F491E02D0994FB013E
S1130640DC018D91019080190110D9F3990B089563
S1070650F894FFCF48
S113065432303137000000000000000000000000C8
S11306643132334134353642373839432A3023441E
S11306740030313233343536373839414243444516
S11306844600494E495449414C495A494E472E2E35
S11306942E0050617373776F726420546573740011
S11306A4454E5445522050415353574F52443A00F7
S11306B42A00564552494659494E472E2E2E20208B
S11306C42020002020202020202000564552494686
S11306D449454400414343455353204752414E54F2
S11306E445442100204143434553532044454E4946
S11306F445442100706C656173652072657365748B
S10707042E2E2E0063
S9030000FC
