:100000000C942A000C9434000C9434000C943400AA
:100010000C9434000C9434000C9434000C94340090
:100020000C9434000C9434000C9434000C94340080
:100030000C9434000C9434000C9434000C94340070
:100040000C9434000C9434000C9434000C94340060
:100050000C94340011241FBECFE5D4E0DEBFCDBF29
:100060000E9436000C9498000C940000CF93DF930C
:10007000CDB7DEB762970FB6F894DEBF0FBECDBF27
:100080008FEF8ABB1BBA84BB15BAFE01319682E1A1
:10009000DF011D928A95E9F781E090E09A838983D8
:1000A00082E090E09C838B8384E090E09E838D834C
:1000B00088E090E098878F8380E190E09A87898735
:1000C00080E290E09C878B8780E490E09E878D871C
:1000D00080E890E0988B8F878EB584608EBD40E07D
:1000E00050E09E012F5E3F4F70E060E0FE013196D0
:1000F0008CB59DB585389E41D9F71DBC1CBC80814F
:1001000032968BBBE217F30799F7FA01EE0FFF1F48
:1001100081E090E08C0F9D1FE80FF91F808185BB67
:100120004F5F5F4F4830510509F7472F562FDECFFD
:04013000F894FFCF71
:00000001FF
