:100000000C942B000C9453000C9453000C9453004C
:100010000C9453000C9453000C9453000C94530014
:100020000C9453000C9453000C9453000C94530004
:100030000C9453000C9453000C9453000C945300F4
:100040000C9453000C9453000C9453000C945300E4
:100050000C945300070211241FBECFE5D4E0DEBF8D
:10006000CDBF10E0A0E6B0E0ECE2F4E002C0059005
:100070000D92A639B107D9F720E0A6E9B0E001C09A
:100080001D92A839B207E1F710E0CBE2D0E004C03E
:100090002197FE010E940E02CA32D107C9F70E94C1
:1000A000CA010C9414020C940000442311F0DD9A50
:1000B00001C0DD98862F82958F7080FF02C0D89A8C
:1000C00001C0D89881FF02C0D99A01C0D99882FF97
:1000D00002C0DA9A01C0DA98887011F0DB9A01C088
:1000E000DB98DC9882E08A95F1F700C0DC9A92E018
:1000F0009A95F1F700C0DC9887EC90E00197F1F752
:1001000000C00000442311F0DD9A01C0DD9860FFBB
:1001100002C0D89A01C0D89861FF02C0D99A01C024
:10012000D99862FF02C0DA9A01C0DA9863FF02C070
:10013000DB9A01C0DB98DC9892E09A95F1F700C059
:10014000DC9A82E08A95F1F700C0DC9887EC90E0B9
:100150000197F1F700C000000895CF93DF93EC0101
:1001600088819FEF980F923038F0843029F082E038
:10017000888380E1898308C089818B7F803121F069
:1001800082E0888380E18983D49AD59AD09AD19AE3
:10019000D29AD39A8FEB9DE50197F1F700C000004A
:1001A00040E063E3CE010E9455008FE99FE0019794
:1001B000F1F700C0000040E063E3CE010E9455006B
:1001C0008FE99FE00197F1F700C0000040E063E392
:1001D000CE010E9455008FE99FE00197F1F700C022
:1001E000000040E062E3CE010E9455008FE99FE0ED
:1001F0000197F1F700C0000040E068E2CE010E94E4
:1002000055008FE99FE00197F1F700C0000040E042
:1002100066E0CE010E9455008FE99FE00197F1F75B
:1002200000C0000040E06CE0CE010E9455008FE964
:100230009FE00197F1F700C0000040E061E0CE01CF
:100240000E9455008FE99FE00197F1F700C0000080
:1002500040E062E0CE010E9455008FE99FE00197E7
:10026000F1F700C00000DF91CF910895CF93DF93A5
:10027000EC0140E061E00E9455008FE99FE00197AA
:10028000F1F700C0000040E062E0CE010E9455009E
:100290008FE99FE00197F1F700C00000DF91CF9157
:1002A0000895FC0120812130A1F0223021F4662341
:1002B00021F160EC17C02430A9F4FC012181203128
:1002C00051F0662351F0613051F0623051F064ED2D
:1002D00009C060E807C064ED05C060E803C060ECD9
:1002E00001C064E9640F40E00E9455008FE99FE07F
:1002F0000197F1F700C00000089560E8F3CFEF9296
:10030000FF920F931F93CF93DF93FB01442301F1DF
:1003100060816623E9F0DC0111962C912223C1F063
:10032000D42F8F017C010F5F1F4FC0E00AC0F8017E
:1003300061918F01662361F0D70111968C918C1722
:1003400039F040E1C7010E945500CF5FCD13EFCFD8
:10035000DF91CF911F910F91FF90EF900895EF9251
:10036000FF920F931F93CF93DF938C017901FC01D0
:10037000C181D0E0C41BD1090E9451014C2FB701AB
:10038000C8010E947F01DF91CF911F910F91FF90D3
:10039000EF90089586E990E00E94AD0086E990E034
:1003A0000E9436012FEF81EE94E021508040904072
:1003B000E1F700C0000021E730E040E060E086E9BE
:1003C00090E00E94AF012FEF8DE399E4215080402F
:1003D0009040E1F700C0000086E990E00E943601FD
:1003E0002DE730E041E060E086E990E00E94AF0157
:1003F0002CE830E044E061E086E990E00E94AF0143
:100400008FE19EE40197F1F700C00000E9CFE6E933
:10041000F0E082E0808380E181830895EE0FFF1F8A
:0C0420000590F491E02D0994F894FFCFB2
:10042C00303132333435363738394142434445461E
:10043C00004C434420444953504C41590050524FB6
:10044C004A4543542044455349474E00454D4D4180
:06045C004E55454C000066
:00000001FF
