S0140000436C6F636B4C6962726172792E737265634F
S11300000C942B000C9453000C9453000C94530048
S11300100C9453000C9453000C946E060C945300EF
S11300200C9453000C9453000C9453000C94530000
S11300300C9453000C9453000C9453000C945300F0
S11300400C9453000C9453000C9453000C945300E0
S11300500C945300A10611241FBECFE5D4E0DEBFEB
S1130060CDBF11E0A0E6B0E0E8E8FDE002C00590F5
S11300700D92A63AB107D9F721E0A6EAB1E001C092
S11300801D92A93CB207E1F710E0CBE2D0E004C036
S11300902197FE010E94BC06CA32D107C9F70E940B
S11300A01D060C94C2060C940000442311F0DF9A40
S11300B001C0DF98862F82958F7080FF02C0D89A86
S11300C001C0D89881FF02C0D99A01C0D99882FF93
S11300D002C0DA9A01C0DA98887011F0DB9A01C084
S11300E0DB98DD9885E08A95F1F70000DD9A95E0CC
S11300F09A95F1F70000DD988FE891E00197F1F708
S113010000C00000442311F0DF9A01C0DF9860FFB3
S113011002C0D89A01C0D89861FF02C0D99A01C020
S1130120D99862FF02C0DA9A01C0DA9863FF02C06C
S1130130DB9A01C0DB98DD9895E09A95F1F7000011
S1130140DD9A85E08A95F1F70000DD988FE891E06B
S11301500197F1F700C000000895CF93DF93EC01FD
S113016088819FEF980F923038F0843029F082E034
S1130170888380E1898308C089818B7F803121F065
S113018082E0888380E18983D59AD79AD09AD19ADC
S1130190D29AD39A8FE79BEB0197F1F700C0000046
S11301A040E063E3CE010E9455008FE39FE1019795
S11301B0F1F700C0000040E063E3CE010E94550067
S11301C08FE39FE10197F1F700C0000040E063E393
S11301D0CE010E9455008FE39FE10197F1F700C023
S11301E0000040E062E3CE010E9455008FE39FE1EE
S11301F00197F1F700C0000040E068E2CE010E94E0
S113020055008FE39FE10197F1F700C0000040E043
S113021066E0CE010E9455008FE39FE10197F1F75C
S113022000C0000040E06CE0CE010E9455008FE366
S11302309FE10197F1F700C0000040E061E0CE01CA
S11302400E9455008FE39FE10197F1F700C0000081
S113025040E062E0CE010E9455008FE39FE10197E8
S1130260F1F700C00000DF91CF910895CF93DF93A1
S1130270EC0140E061E00E9455008FE39FE10197AB
S1130280F1F700C0000040E062E0CE010E9455009A
S11302908FE39FE10197F1F700C00000DF91CF9158
S11302A00895FC0120812130A1F0223021F466233D
S11302B021F160EC17C02430A9F4FC012181203124
S11302C051F0662351F0613051F0623051F064ED29
S11302D009C060E807C064ED05C060E803C060ECD5
S11302E001C064E9640F40E00E9455008FE39FE180
S11302F00197F1F700C00000089560E8F3CFBF92C2
S1130300CF92DF92EF92FF920F931F93CF93DF93DD
S11303108C0179010E94510180E1E81687E2F80618
S113032060F19701329522952F7023273F70232780
S1130330A7E4B3E00E94AD06EC01D695C795D69527
S1130340C795D695C7956C2F605D40E1C8010E94A2
S11303505500CC23A1F09C2F9150F1F78C2F8150A4
S113036020EF38ED829FE001839FD00D1124C70157
S113037080519742C80FD91F03C0E70101C0E701AC
S113038088EEE81683E0F80658F19E013695279525
S11303903695279536952795A5ECB0E20E94AD06D3
S11303A06C01D694C794D694C794D694C794D69423
S11303B0C79460E36C0D40E1C8010E945500CC2055
S11303C079F09C2D9150F1F7C85ED340CA9428E18E
S11303D03CEFC29EC001C39E900D1124C80FD91FCB
S11303E084E6E816F104F8F09E01369527953695D3
S11303F02795ABE7B4E10E94AD066C01D694C7948F
S113040060E36C0D40E1C8010E945500CC2059F016
S11304109C2D9150F1F7C456D109CA9484E6C89E24
S1130420C019D10911248AE0E816F104F0F09E0104
S1130430ADECBCEC0E94AD067C01F694E794F69416
S1130440E794F694E79460E36E0D40E1C8010E94DE
S11304505500EE2051F09E2D9150F1F72A97EA9421
S11304608AE0E89EC019D10911246C2F605D40E137
S1130470C8010E945500DF91CF911F910F91FF9009
S1130480EF90DF90CF90BF900895EF92FF920F937B
S11304901F93CF93DF93FB01442301F16081662313
S11304A0E9F0DC0111962C912223C1F0D42F8F01A5
S11304B07C010F5F1F4FC0E00AC0F80161918F01FA
S11304C0662361F0D70111968C918C1739F040E1C5
S11304D0C7010E945500CF5FCD13EFCFDF91CF91BD
S11304E01F910F91FF90EF900895EF92FF920F9359
S11304F01F93CF93DF938C017901FC01C181D0E07C
S1130500C41BD1090E9451014C2FB701C8010E949C
S11305104502DF91CF911F910F91FF90EF900895C5
S1130520959894988D988C9880E008958D988C98DF
S113053085E38A95F1F700008C9A949885E38A956F
S1130540F1F700008D9A959885E38A95F1F70000FC
S113055008958D9A95988C9A949885E38A95F1F7E5
S113056000008D9895E39A95F1F700008C988FE33D
S11305709CE90197F1F700C00000089528E030E0FD
S113058080E8982F962311F08C9802C08C9A949846
S113059095E39A95F1F700008D9895E39A95F1F714
S11305A000008D9A959895E39A95F1F70000869549
S11305B02150310931F78C9885E38A95F1F70000D1
S11305C08D9895E39A95F1F7000080B38295817038
S11305D095E39A95F1F700008D9A959895E39A958D
S11305E0F1F7000008958C9845E34A95F1F700006F
S11305F028E030E080E090E88D9845E34A95F1F7F3
S113060000008C988499892B8D9A959845E34A9596
S1130610F1F7000096952150310971F7611102C07C
S11306208C9802C08C9A949895E39A95F1F70000FF
S11306308D9845E34A95F1F700008D9A959895E3D6
S11306409A95F1F7000008950F931F93CF93DF93CA
S1130650EC018B01442319F0413059F011C060E0E2
S11306600E94F302F8018083CE010E94A90281E076
S113067008C061E00E94F302F801808381E001C0B8
S113068080E0DF91CF911F910F9108951F93CF9335
S1130690DF93EC01162F442319F0413029F00DC0EB
S11306A00E94BE0281E00AC0672F0E94BE02612F31
S11306B0CE010E94BE0281E001C080E0DF91CF91B3
S11306C01F910895EF92FF920F931F93CF93DF939F
S11306D08C01C62F7A01D22F0E949602CC0F6C2F68
S11306E0C8010E94BE024D2FB701C8010E944603F3
S11306F0C8010E9496026C2F6160C8010E94BE026C
S113070080E0DF91CF911F910F91FF90EF900895BA
S1130710CF92DF92EF92FF920F931F93CF937C01BE
S11307206A01022FFC012181AB0160810E946203F6
S113073010E001501109101611067CF4C0E0B60156
S11307406C0F711D41E0C7010E942403CF5FEC2FA1
S1130750F0E0E017F1079CF301C0C0E0B6016C0FB4
S1130760711D40E0C7010E9424038C2FCF911F917B
S11307700F91FF90EF90DF90CF90089587B38FEFA4
S113078087BB8F9A0895C79A81E0982F9A95F1F7BD
S1130790C7988A95F1F70895C49AC4980895C59A9C
S11307A0C5980895C69AC6980895979A97980895F3
S11307B00F931F93CF93DF938C01D62FC8E0DD23D3
S11307C014F4C09A01C0C098C8010E94CC03DD0F84
S11307D0C150A9F7DF91CF911F910F9108950F9305
S11307E01F93CF93DF938C01D62FC8E0DD2314F43D
S11307F0C19A01C0C198C8010E94CF03DD0FC15046
S1130800A9F7DF91CF911F910F9108950F931F9333
S1130810CF93DF938C01D62FC8E0DD2314F4C29A62
S113082001C0C298C8010E94D203DD0FC150A9F7CC
S1130830DF91CF911F910F9108950F931F93CF9341
S1130840DF938C01D62FC8E0DD2314F4C39A01C0D2
S1130850C398C8010E94D503DD0FC150A9F7DF91E9
S1130860CF911F910F910895FF920F931F93CF93F0
S1130870DF93EC01F42E122F0E94D8036F2DCE01CA
S11308800E94EF03612FCE010E940604602FCE0167
S11308900E941D04CE010E94C303DF91CF911F91DA
S11308A00F91FF90089584B3876084BB15BA789440
S11308B084E08EBD80E189BF84E294EF9BBD8ABD54
S11308C0089595B381E0892785BB0895CF93DF937D
S11308D08BEA91E00E94AD002FEF81EE94E021506D
S11308E080409040E1F700C0000026EA30E040E09C
S11308F060E08BEA91E00E9475022FEF83ED90E3B4
S1130900215080409040E1F700C000008BEA91E064
S11309100E943601C0E0D0E027EB30E040E060E028
S11309208BEA91E00E9475029E0147E061E08BEA48
S113093091E00E947F0128EC30E04AE061E08BEA1C
S113094091E00E9475022FEF80E792E021508040F1
S11309509040E1F700C000002196C536D105E1F6CC
S11309602FEF83ED90E3215080409040E1F700C0E9
S113097000008BEA91E00E9436012FEF89E698E1AE
S1130980215080409040E1F700C00000DF91CF91FA
S11309900895CF93DF93CDEAD1E0EE81F0E0EE0F3E
S11309A0FF1FE659FF4F2081318143E060E08BEA6D
S11309B091E00E947502EA85E1110FC08091B801AF
S11309C0813069F520918E0030918F0040E061E024
S11309D08BEA91E00E9475022FC0E13079F4809196
S11309E0B8018130E1F4209190003091910040E011
S11309F061E08BEA91E00E9475021EC0E23079F456
S1130A008091B801813059F4209192003091930083
S1130A1040E061E08BEA91E00E9475020DC0F0E0D5
S1130A20EE0FFF1FE658FF4F2081318140E061E067
S1130A308BEA91E00E947502CDEAD1E0298530E08D
S1130A4049E061E08BEA91E00E947F01288530E073
S1130A504AE061E08BEA91E00E947F012AEC30E0F9
S1130A604BE061E08BEA91E00E94750220919400D2
S1130A7030E04CE061E08BEA91E00E947F012D853B
S1130A8030E04EE061E08BEA91E00E947F012C852A
S1130A9030E04FE061E08BEA91E00E947F018FE358
S1130AA09CE90197F1F700C00000DF91CF91089510
S1130AB08091BE012DEE280F91E02D3008F090E0DA
S1130AC0911106C091E0823208F490E0992391F0EC
S1130AD099E3899F912D112496959695990F292F25
S1130AE0220F220F220F920F891B8093C40184E0EE
S1130AF085BB21C0811106C082E18093C40182E0DC
S1130B0085BB19C0803231F488E08093C40184E04D
S1130B1085BB11C0813231F489E08093C40184E043
S1130B2085BB09C0823119F484E085BB04C080937D
S1130B30C40182E085BBACEBB1E08C91EDEAF1E05D
S1130B40982F9F70908390E09595879595958795BC
S1130B5095958795959587958770818311968C9146
S1130B601197582F5F70528390E0959587959595CE
S1130B7087959595879595958795982F97709383E5
S1130B802091C401422F4F70448330E0359527955E
S1130B90359527953595279535952795822F877017
S1130BA0858313962C911397322F3F70368330E050
S1130BB03595279535952795359527953595279519
S1130BC02770278314962C911497322F3F70308707
S1130BD030E03595279535952795359527953595A5
S1130BE027952770218715962C911597322F3F70E2
S1130BF0328730E035952795359527953595279596
S1130C00359527952770238716962C91322F3F70A0
S1130C10348730E035952795359527953595279573
S1130C2035952795277025875093C6019093C50164
S1130C304093C8018093C701089589EA91E00E9416
S1130C40900286EA91E00E94BE032FEF81EE94E0C9
S1130C50215080409040E1F700C0000087EA91E015
S1130C600E94660488EA91E00E94530428E04CEB59
S1130C7051E060E070E089EA91E00E94880387EA2D
S1130C8091E00E945805E091C701F0E0E05AFF4F5F
S1130C90008110E0E091C801F0E0E05AFF4F2081AC
S1130CA030E0E091C501F0E0E05AFF4F408150E0B0
S1130CB0E091C601F0E0E05AFF4F608170E086EAFF
S1130CC091E00E94340487EA91E00E94C9048FE90C
S1130CD09FE00197F1F700C00000C8CF1F920F9268
S1130CE00FB60F9211242F933F934F935F936F93FB
S1130CF07F938F939F93AF93BF93EF93FF9387EA71
S1130D0091E00E94580588EA91E00E9461042FEF67
S1130D1089E698E1215080409040E1F700C000004E
S1130D20FF91EF91BF91AF919F918F917F916F91BF
S1130D305F914F913F912F910F900FBE0F901F9095
S1130D401895EBEAF1E082E0808380E18183E9EAAF
S1130D50F1E088E6808311820895A29FB001B39FD9
S1130D60C001A39F700D811D1124911DB29F700DB0
S1130D70811D1124911D0895EE0FFF1F0590F4911C
S10B0D80E02D0994F894FFCF63
S1130D883F065B4F666D7D077F6FCC00D600E2009F
S1130D98EE00FB00080115012101CC002F013901E7
S1130DA843014D01570161016B0175017E01880101
S1130DB891019B0114303132333435363738394197
S1130DC842434445460053595354454D20535441D6
S1130DD8525455502E2E005550444154494E4720E4
S1130DE854494D452E2E2E0025002C00202020206D
S1130DF8202020202000202053554E4441592020F3
S1130E08200020204D4F4E4441592020200020200E
S1130E185455455344415920202000205745444EF9
S1130E2845534441592020002020544855525344E6
S1130E38415920200020204652494441592020206D
S1130E480020534154555244415920202020004A3F
S1130E58414E554152592020002020204645422E1B
S1130E6820200020204D41524348202000202041CA
S1130E785052494C202000202020204D4159202048
S1130E88002020204A554E452020002020204A5585
S1130E984C59202000415547555354202000202008
S1130EA8534550542E2020004F43544F424552205E
S1130EB8004E4F56454D4245522000444543454D4A
S1090EC842455220000027
S9030000FC
