S010000050495274657374312E7372656338
S11300000C942A000C9434000C9448000C94340092
S11300100C9434000C9434000C9434000C9434008C
S11300200C9434000C9434000C9434000C9434007C
S11300300C9434000C9434000C9434000C9434006C
S11300400C9434000C9434000C9434000C9434005C
S11300500C94340011241FBECFE5D4E0DEBFCDBF25
S11300600E9436000C9463000C9400008FEF8ABB4E
S11300701BBA85B78C6085BF8BB780688BBF7894BB
S11300801BBA8FE39CE90197F1F700C00000F8CF99
S11300901F920F920FB60F9211242F938F939F9359
S11300A08FEF8BBB2FEF87EA91E621508040904081
S11300B0E1F700C000009F918F912F910F900FBE28
S10D00C00F901F901895F894FFCFDD
S9030000FC
