:100000000C942B000C9453000C9453000C9453004C
:100010000C9453000C9453000C9453000C94530014
:100020000C9453000C9453000C9453000C94530004
:100030000C9453000C9453000C9453000C945300F4
:100040000C9453000C9453000C9453000C945300E4
:100050000C9453009A0211241FBECFE5D4E0DEBFFA
:10006000CDBF10E0A0E6B0E0E6E9F5E002C0059003
:100070000D92A238B107D9F720E0A2E8B0E001C0A4
:100080001D92AF38B207E1F710E0CBE2D0E004C038
:100090002197FE010E94C302CA32D107C9F70E940C
:1000A0004F020C94C9020C940000DC01CB01880FB4
:1000B000991FAA1FBB1F880F991FAA1FBB1F9C0156
:1000C000AD01220F331F441F551F220F331F441F42
:1000D000551F60E074E284EF90E00E94A10221507D
:1000E000310929B930BD1BB886E880BD88E18AB9DD
:1000F00008958BB1881F8827881F08955D9BFECFC8
:100100008CB908955D9BFECF8CB90895CF93DF9392
:10011000EC018881882331F021960E947E0089912C
:100120008111FBCFDF91CF910895CB010E94860012
:100130008DE00E9482008AE00E94820008955F9B09
:1001400002C08CB1089580E00895DF92EF92FF9293
:100150000F931F93CF93DF937B01FB0110821182DA
:1001600010E0C0E0D0E0DD24D39400E00E947900EC
:10017000882371F0E701C10FD11D0E949F00888381
:100180001F5FF5E3FA95F1F70000CD2DD02FEECFEC
:100190002196F5E3FA95F1F70000C83E8DEFD807F8
:1001A00028F380E0DF91CF911F910F91FF90EF90A6
:1001B000DF900895442311F0DF9A01C0DF98862F65
:1001C00082958F7080FF02C0D89A01C0D89881FFB5
:1001D00002C0D99A01C0D99882FF02C0DA9A01C040
:1001E000DA98887011F0DB9A01C0DB98DD9885E021
:1001F0008A95F1F70000DD9A95E09A95F1F70000F5
:10020000DD988FE891E00197F1F700C000004423EA
:1002100011F0DF9A01C0DF9860FF02C0D89A01C0D8
:10022000D89861FF02C0D99A01C0D99862FF02C074
:10023000DA9A01C0DA9863FF02C0DB9A01C0DB984A
:10024000DD9895E09A95F1F70000DD9A85E08A95B2
:10025000F1F70000DD988FE891E00197F1F700C019
:1002600000000895CF93DF93EC0188819FEF980FF2
:10027000923038F0843029F082E0888380E18983ED
:1002800008C089818B7F803121F082E0888380E102
:100290008983D59AD79AD09AD19AD29AD39A8FE74E
:1002A0009BEB0197F1F700C0000040E063E3CE0153
:1002B0000E94DA008FE39FE10197F1F700C0000090
:1002C00040E063E3CE010E94DA008FE39FE10197F3
:1002D000F1F700C0000040E063E3CE010E94DA00C5
:1002E0008FE39FE10197F1F700C0000040E062E377
:1002F000CE010E94DA008FE39FE10197F1F700C081
:10030000000040E068E2CE010E94DA008FE39FE146
:100310000197F1F700C0000040E066E0CE010E94C6
:10032000DA008FE39FE10197F1F700C0000040E0A1
:100330006CE0CE010E94DA008FE39FE10197F1F7B4
:1003400000C0000040E061E0CE010E94DA008FE3CF
:100350009FE10197F1F700C0000040E062E0CE01AC
:100360000E94DA008FE39FE10197F1F700C00000DF
:10037000DF91CF910895CF93DF93EC0140E061E0EE
:100380000E94DA008FE39FE10197F1F700C00000BF
:1003900040E062E0CE010E94DA008FE39FE1019726
:1003A000F1F700C00000DF91CF910895FC0120819A
:1003B0002130A1F0223021F4662321F160EC17C036
:1003C0002430A9F4FC012181203151F0662351F041
:1003D000613051F0623051F064ED09C060E807C04F
:1003E00064ED05C060E803C060EC01C064E9640F1F
:1003F00040E00E94DA008FE39FE10197F1F700C02F
:100400000000089560E8F3CFEF92FF920F931F93DF
:10041000CF93DF93FB01442301F160816623E9F070
:10042000DC0111962C912223C1F0D42F8F017C0185
:100430000F5F1F4FC0E00AC0F80161918F01662372
:1004400061F0D70111968C918C1739F040E1C7010A
:100450000E94DA00CF5FCD13EFCFDF91CF911F91D4
:100460000F91FF90EF900895EF92FF920F931F93DB
:10047000CF93DF938C017901FC01C181D0E0C41BD3
:10048000D1090E94D6014C2FB701C8010E94040275
:10049000DF91CF911F910F91FF90EF9008952FEF73
:1004A00083EC99E0215080409040E1F700C00000CB
:1004B00060E875E280E090E00E9455008DE890E0F1
:1004C0000E9432018DE890E00E94BB012FEF89E687
:1004D00098E1215080409040E1F700C000006AE7B9
:1004E00070E08CE890E00E9495002FEF83ED90E3A0
:1004F000215080409040E1F700C000000E94790048
:10050000882371F062E870E08CE890E00E94A5001A
:1005100022E830E040E061E08DE890E00E943402A3
:100520002FEF81EE94E0215080409040E1F700C031
:100530000000E4CFEDE8F0E082E0808380E1818399
:100540000895A1E21A2EAA1BBB1BFD010DC0AA1F14
:10055000BB1FEE1FFF1FA217B307E407F50720F02C
:10056000A21BB30BE40BF50B661F771F881F991FA7
:100570001A9469F760957095809590959B01AC01F0
:10058000BD01CF010895EE0FFF1F0590F491E02DFE
:060590000994F894FFCF6E
:1005960030313233343536373839414243444546B3
:1005A6000020202020200030780057454C434F4D36
:0205B6004500FE
:00000001FF
